{
  "contractName": "Dswitch",
  "abi": [
    {
      "inputs": [
        {
          "name": "pAddress",
          "type": "address"
        }
      ],
      "payable": false,
      "stateMutability": "nonpayable",
      "type": "constructor"
    },
    {
      "anonymous": false,
      "inputs": [
        {
          "indexed": false,
          "name": "status",
          "type": "string"
        }
      ],
      "name": "StillActive",
      "type": "event"
    },
    {
      "anonymous": false,
      "inputs": [
        {
          "indexed": false,
          "name": "_from",
          "type": "address"
        },
        {
          "indexed": false,
          "name": "_to",
          "type": "address"
        },
        {
          "indexed": false,
          "name": "amount",
          "type": "uint256"
        }
      ],
      "name": "Transfer",
      "type": "event"
    },
    {
      "constant": true,
      "inputs": [],
      "name": "still_active",
      "outputs": [
        {
          "name": "",
          "type": "bool"
        }
      ],
      "payable": false,
      "stateMutability": "view",
      "type": "function"
    },
    {
      "constant": false,
      "inputs": [],
      "name": "transfer",
      "outputs": [],
      "payable": true,
      "stateMutability": "payable",
      "type": "function"
    }
  ],
  "bytecode": "0x608060405234801561001057600080fd5b506040516020806102e48339810180604052602081101561003057600080fd5b8101908080519060200190929190505050806000806101000a81548173ffffffffffffffffffffffffffffffffffffffff021916908373ffffffffffffffffffffffffffffffffffffffff1602179055506001600060146101000a81548160ff02191690831515021790555050610238806100ac6000396000f3fe608060405260043610610046576000357c01000000000000000000000000000000000000000000000000000000009004806375efb3b91461004b5780638a4068dd1461007a575b600080fd5b34801561005757600080fd5b50610060610084565b604051808215151515815260200191505060405180910390f35b61008261009a565b005b60008060149054906101000a900460ff16905090565b60008060146101000a81548160ff0219169083151502179055506000809054906101000a900473ffffffffffffffffffffffffffffffffffffffff1673ffffffffffffffffffffffffffffffffffffffff166108fc3373ffffffffffffffffffffffffffffffffffffffff16319081150290604051600060405180830381858888f19350505050158015610132573d6000803e3d6000fd5b507fddf252ad1be2c89b69c2b068fc378daa952ba7f163c4a11628f55a4df523b3ef336000809054906101000a900473ffffffffffffffffffffffffffffffffffffffff163373ffffffffffffffffffffffffffffffffffffffff1631604051808473ffffffffffffffffffffffffffffffffffffffff1673ffffffffffffffffffffffffffffffffffffffff1681526020018373ffffffffffffffffffffffffffffffffffffffff1673ffffffffffffffffffffffffffffffffffffffff168152602001828152602001935050505060405180910390a156fea165627a7a72305820ce40f38867303300132c396af49d397de483cd98e2221700198f426e58ec1f070029",
  "source": "// SPDX-License-Identifier: MIT\npragma solidity >=0.4.21 <0.7.0;\n\n//import \"../node_modules/@openzeppelin/contracts/access/Ownable.sol\";\n\ncontract Dswitch {\n\n    address payable presetAddress;\n    bool active;\n\n    event StillActive(\n        string status\n    );\n\n    event Transfer(\n        address _from,\n        address _to,\n        uint amount\n    );\n\n     constructor(address payable pAddress) public {\n        presetAddress = pAddress;\n        active = true;\n    }\n\n    function still_active() public view returns(bool) {\n        //active = true;\n        //emit StillActive(\"User Still Alive\");\n        return active;\n    }\n\n    function transfer() public payable {\n        active = false;\n        presetAddress.transfer(msg.sender.balance);\n        emit Transfer(msg.sender, presetAddress, msg.sender.balance);\n    }\n\n}",
  "sourcePath": "/Users/raahulvignesh/Desktop/EthereumIndiaFellowship/Week2.4/contracts/Dswitch.sol",
  "compiler": {
    "name": "solc",
    "version": "0.5.1+commit.c8a2cb62.Emscripten.clang"
  },
  "schemaVersion": "3.2.0",
  "updatedAt": "2020-06-20T11:36:44.062Z",
  "networkType": "ethereum",
  "devdoc": {
    "methods": {}
  },
  "userdoc": {
    "methods": {}
  }
}