{
  "contractName": "Dswitch",
  "abi": [
    {
      "inputs": [
        {
          "name": "pAddress",
          "type": "address"
        }
      ],
      "payable": false,
      "stateMutability": "nonpayable",
      "type": "constructor"
    },
    {
      "anonymous": false,
      "inputs": [
        {
          "indexed": false,
          "name": "status",
          "type": "string"
        }
      ],
      "name": "StillActive",
      "type": "event"
    },
    {
      "constant": false,
      "inputs": [],
      "name": "still_active",
      "outputs": [
        {
          "name": "",
          "type": "bool"
        }
      ],
      "payable": false,
      "stateMutability": "nonpayable",
      "type": "function"
    },
    {
      "constant": false,
      "inputs": [],
      "name": "transfer",
      "outputs": [],
      "payable": true,
      "stateMutability": "payable",
      "type": "function"
    }
  ],
  "bytecode": "0x608060405234801561001057600080fd5b5060405160208061027a8339810180604052602081101561003057600080fd5b8101908080519060200190929190505050806000806101000a81548173ffffffffffffffffffffffffffffffffffffffff021916908373ffffffffffffffffffffffffffffffffffffffff1602179055506001600060146101000a81548160ff021916908315150217905550506101ce806100ac6000396000f3fe608060405260043610610046576000357c01000000000000000000000000000000000000000000000000000000009004806375efb3b91461004b5780638a4068dd1461007a575b600080fd5b34801561005757600080fd5b50610060610084565b604051808215151515815260200191505060405180910390f35b61008261011e565b005b60006001600060146101000a81548160ff0219169083151502179055507f401c3f9442a38b99d2e588339a18e22b03e6343752acadad78bc3e62055b4d046040518080602001828103825260108152602001807f55736572205374696c6c20416c6976650000000000000000000000000000000081525060200191505060405180910390a1600060149054906101000a900460ff16905090565b60008060146101000a81548160ff0219169083151502179055506000809054906101000a900473ffffffffffffffffffffffffffffffffffffffff1673ffffffffffffffffffffffffffffffffffffffff166108fc349081150290604051600060405180830381858888f1935050505015801561019f573d6000803e3d6000fd5b5056fea165627a7a723058209e4c9431d68911c5477b0e354af748bc2e4cbd6c0f0be0c5d1d3ab489a5502a30029",
  "source": "// SPDX-License-Identifier: MIT\npragma solidity >=0.4.21 <0.7.0;\n\n//import \"../node_modules/@openzeppelin/contracts/access/Ownable.sol\";\n\ncontract Dswitch {\n\n    address payable presetAddress;\n    bool active;\n\n    event StillActive(\n        string status\n    );\n\n     constructor(address payable pAddress) public {\n        presetAddress = pAddress;\n        active = true;\n    }\n\n    function still_active() public  returns(bool) {\n        active = true;\n        emit StillActive(\"User Still Alive\");\n        return active;\n    }\n\n    function transfer() public payable {\n        active = false;\n        presetAddress.transfer(msg.value);\n    }\n\n}",
  "sourcePath": "/Users/raahulvignesh/Desktop/EthereumIndiaFellowship/Week2.4/contracts/Dswitch.sol",
  "compiler": {
    "name": "solc",
    "version": "0.5.1+commit.c8a2cb62.Emscripten.clang"
  },
  "schemaVersion": "3.2.0",
  "updatedAt": "2020-06-19T18:08:01.013Z",
  "networkType": "ethereum",
  "devdoc": {
    "methods": {}
  },
  "userdoc": {
    "methods": {}
  }
}